:020000040000fa
:080000000002040000000000f2
:020000040000fa
:040008006803000089
:020000040000fa
:04000c006803000085
:020000040000fa
:040010006803000081
:020000040000fa
:04001400680300007d
:020000040000fa
:040018006803000079
:020000040000fa
:04001c006803000075
:020000040000fa
:040020006803000071
:020000040000fa
:04002400680300006d
:020000040000fa
:040028006803000069
:020000040000fa
:04002c006803000065
:020000040000fa
:040030006803000061
:020000040000fa
:04003400fa020000cc
:020000040000fa
:040038006803000059
:020000040000fa
:04003c006803000055
:020000040000fa
:040040006803000051
:020000040000fa
:040044001a0300009b
:020000040000fa
:040048006803000049
:020000040000fa
:04004c006803000045
:020000040000fa
:040050006803000041
:020000040000fa
:04005400680300003d
:020000040000fa
:040058006803000039
:020000040000fa
:04005c006803000035
:020000040000fa
:040060006803000031
:020000040000fa
:04006400680300002d
:020000040000fa
:040068006803000029
:020000040000fa
:04006c006803000025
:020000040000fa
:040070006803000021
:020000040000fa
:04007400680300001d
:020000040000fa
:040078006803000019
:020000040000fa
:04007c006803000015
:020000040000fa
:040080006803000011
:020000040000fa
:04008400680300000d
:020000040000fa
:040088006803000009
:020000040000fa
:04008c006803000005
:020000040000fa
:040090006803000001
:020000040000fa
:0400940068030000fd
:020000040000fa
:0400980068030000f9
:020000040000fa
:04009c0068030000f5
:020000040000fa
:0400a00068030000f1
:020000040000fa
:0400a40068030000ed
:020000040000fa
:0400a80068030000e9
:020000040000fa
:0400ac0068030000e5
:020000040000fa
:0400b00068030000e1
:020000040000fa
:0400b40068030000dd
:020000040000fa
:0400b80068030000d9
:020000040000fa
:0400bc0068030000d5
:020000040000fa
:0400c00068030000d1
:020000040000fa
:0400c40068030000cd
:020000040000fa
:0400c80068030000c9
:020000040000fa
:0400cc0068030000c5
:020000040000fa
:0400d00068030000c1
:020000040000fa
:0400d40068030000bd
:020000040000fa
:0400d80068030000b9
:020000040000fa
:0400dc0068030000b5
:020000040000fa
:0400e00068030000b1
:020000040000fa
:0400e40068030000ad
:020000040000fa
:0400e80068030000a9
:020000040000fa
:0400ec0068030000a5
:020000040000fa
:0400f00068030000a1
:020000040000fa
:0400f400680300009d
:020000040000fa
:0400f8006803000099
:020000040000fa
:0400fc006803000095
:020000040000fa
:040100006803000090
:020000040000fa
:04010400680300008c
:020000040000fa
:040108006803000088
:020000040000fa
:04010c006803000084
:020000040000fa
:040110006803000080
:020000040000fa
:04011400680300007c
:020000040000fa
:040118006803000078
:020000040000fa
:04011c006803000074
:020000040000fa
:040120006803000070
:020000040000fa
:04012400680300006c
:020000040000fa
:040128006803000068
:020000040000fa
:04012c006803000064
:020000040000fa
:040130006803000060
:020000040000fa
:04013400680300005c
:020000040000fa
:040138006803000058
:020000040000fa
:04013c006803000054
:020000040000fa
:040140006803000050
:020000040000fa
:04014400680300004c
:020000040000fa
:040148006803000048
:020000040000fa
:04014c006803000044
:020000040000fa
:040150006803000040
:020000040000fa
:04015400680300003c
:020000040000fa
:040158006803000038
:020000040000fa
:04015c006803000034
:020000040000fa
:040160006803000030
:020000040000fa
:04016400680300002c
:020000040000fa
:040168006803000028
:020000040000fa
:04016c006803000024
:020000040000fa
:040170006803000020
:020000040000fa
:04017400680300001c
:020000040000fa
:040178006803000018
:020000040000fa
:04017c006803000014
:020000040000fa
:040180006803000010
:020000040000fa
:04018400680300000c
:020000040000fa
:040188006803000008
:020000040000fa
:04018c006803000004
:020000040000fa
:040190006803000000
:020000040000fa
:0401940068030000fc
:020000040000fa
:0401980068030000f8
:020000040000fa
:04019c0068030000f4
:020000040000fa
:0401a00068030000f0
:020000040000fa
:0401a40068030000ec
:020000040000fa
:0401a80068030000e8
:020000040000fa
:0401ac0068030000e4
:020000040000fa
:0401b00068030000e0
:020000040000fa
:0401b40068030000dc
:020000040000fa
:0401b80068030000d8
:020000040000fa
:0401bc0068030000d4
:020000040000fa
:0401c00068030000d0
:020000040000fa
:0401c40068030000cc
:020000040000fa
:0401c80068030000c8
:020000040000fa
:0401cc0068030000c4
:020000040000fa
:0401d00068030000c0
:020000040000fa
:0401d40068030000bc
:020000040000fa
:0401d80068030000b8
:020000040000fa
:0401dc0068030000b4
:020000040000fa
:0401e00068030000b0
:020000040000fa
:0401e40068030000ac
:020000040000fa
:0401e80068030000a8
:020000040000fa
:0401ec0068030000a4
:020000040000fa
:0401f00068030000a0
:020000040000fa
:0401f400680300009c
:020000040000fa
:0401f8006803000098
:020000040000fa
:0401fc006803000094
:020000040000fa
:04020000680300008f
:020000040000fa
:04020400680300008b
:020000040000fa
:040208006803000087
:020000040000fa
:04020c006803000083
:020000040000fa
:04021000680300007f
:020000040000fa
:04021400680300007b
:020000040000fa
:040218006803000077
:020000040000fa
:04021c006803000073
:020000040000fa
:04022000680300006f
:020000040000fa
:04022400680300006b
:020000040000fa
:040228006803000067
:020000040000fa
:04022c006803000063
:020000040000fa
:04023000680300005f
:020000040000fa
:04023400680300005b
:020000040000fa
:040238006803000057
:020000040000fa
:04023c006803000053
:020000040000fa
:04024000680300004f
:020000040000fa
:04024400680300004b
:020000040000fa
:040248006803000047
:020000040000fa
:04024c006803000043
:020000040000fa
:04025000680300003f
:020000040000fa
:04025400680300003b
:020000040000fa
:040258006803000037
:020000040000fa
:04025c006803000033
:020000040000fa
:04026000680300002f
:020000040000fa
:04026400680300002b
:020000040000fa
:100400002f0521000eff27000e01880000000000cc
:10041000000020000000e000020032000001200087
:100420002002880014000700ab0007000000e00075
:1004300003003a0060b521000100200002003700ef
:100440000000200001002000810f70000100320038
:100450000f000700000020000000e0000200320052
:1004600000000200000000008c1b020000000000e1
:100470000040da000000fe00200020000000e00044
:1004800002003200100020009001880000000600e9
:10049000a1028800800478000000eb001f003700f4
:1004a000e284440054a0b4009905ba00e2844400f8
:1004b00054a0b4009906ba00e284440054a0b400e9
:1004c0000006eb00476fde00fd07b200ae018800ba
:1004d000636ce10003003a000ad801000000eb0061
:1004e0000e003700606ce10008003a00004deb00a0
:1004f0000a05e800020039003420ec000af0a000f0
:100500008b05e900f9ff3e00040037006168e10057
:10051000010032000086eb000b00070019c7ba008b
:100520000e04e0001905ba0003003a000a00e000da
:10053000dbff3a0000000600fe07b200ae028800b2
:100540008a047800f5ff37000cd0a300e20f4d00bd
:100550001c003b0089027800354dba000a05e8000e
:10056000020039003420ec000af0a0008b05e900fd
:100570000f003200254dba000a05e80002003900dc
:100580003420ec000af0a0008b05e90008003200de
:100590000c00e0000600320015cdba000a05e800a4
:1005a000020039003420ec000af0a0008b05e900bd
:1005b0008984e80054a0b4000b00e000e2ff3a0098
:1005c000000006009902ba00055d78008b05e9007d
:1005d000f7ff3200c82ade00055d78008b05e900d0
:1005e000f3ff32000c00e000f1ff320019ddba0029
:1005f000eeff3700801f78003200f8003400f8006a
:1006000010002000a00188001000200000d0fe0093
:100610000000fa000068a90010c0b30012f0b70093
:100620000080fa003400f9003200f9004f00780031
:1006300000400600809fbe003200f8003400f80041
:1006400010002000a00188001000200000d0fe0053
:100650000000fa0000e8a90010c0b30013f0b700d2
:10066000b08080000000e800b0808800b180800089
:10067000301f2000808f5000100036002070800056
:100680006100600000f0a7000000ea000000e9003f
:100690004f00de00004078000080fb006100600039
:1006a000217080000100a10001007000207088000e
:1006b0001630ef0070042000201188000080fa003e
:1006c0003400f9003200f9004f00be00004006007f
:1006d0000040da000000fe0000000500839f680073
:1006e0000100e00002003d0060001000e080180002
:1006f0000300e00002003d0060011100e0811900ec
:100700003a0007004f00e00002003b0060001000cc
:10071000e0801800000006000001be001e00070077
:100720000470a70003f0a10003f8a30013003a002f
:100730006509b10010003200090035006928e100a8
:100740000200350001002800000005000000400004
:10075000818048008502e900fcff3a0000000600a5
:10076000f88f4200050035008100d1000080d300e1
:100770008502e800fcff3a00000006008000eb0064
:10078000000005004f89de00820178007c033700fd
:100790006011b8008a033700c70ade00f107b20013
:1007a000f50fb20008003200e1cf42000200320033
:1007b0000170a00024000500810f700001003200cc
:1007c0000408050044000500810f700002003a0093
:1007d000140005008502e9000000400081c04800c7
:1007e000fcff3b000170a000240005006022b8005f
:1007f000060220000000d0008180d2000482d200d6
:100800008582d2000000a0000202520083825a00ba
:10081000030031000202420083824a000000a1006e
:100820000603e900f3ff3a000000060007f827007e
:10083000078361000638e10004003a00f707200052
:10084000878361008703710001003a0003f0a20072
:10085000889fbe008a9fbe008c9fbe00470ade00b4
:100860000480a100c71ade000580a100070028004f
:100870000785600087856100f70f20000720e100f1
:100880009e0032000728e1009c003200010678003b
:100890000400e000b4003200f70720008780600009
:1008a0000170a0000500e000c0003200f707200042
:1008b000878161000370a000050652000f003a0016
:1008c0000b50e1000b0032000308e10002003a0087
:1008d0000200e1007e0032000204500083845800d0
:1008e000040031000001fd008101fd008402fd00d3
:1008f0008a05fd006044b800210037000520e100b2
:1009000005003d000001fd008101fd008402fd00a5
:100910008a05fd00050652007a60e10005003500f9
:100920000170a1004722dd00848070008a80700081
:10093000630037006044b800ef02660007ff2f0035
:10094000070666000500e00006003400f083120090
:100950008714dd000511de00071bdd0006017100b4
:100960008519de007060e10005003500090478009b
:1009700082047800030178008001eb0070065600c5
:100980000b50e10003003a00020040008380480061
:100990000400370060041400e0841c0002005800ca
:1009a000838058000188a300060032008100d10036
:1009b0000080d3008984d3000884d3000402e800b7
:1009c000270037000178a30025003a000100e0006d
:1009d000030032008186cf00698656000a00370086
:1009e0008c0020000000e00004003a0009007800bc
:1009f000880478000004eb00700252008086cf006b
:100a00000d0646000c06e9007060e10006003500a6
:100a10008000780009007800880478000004eb006a
:100a200070065600700252000c00e0000c0034000a
:100a30008c08dd00f00316000703de0086807000de
:100a40000c00dd00074bde00060070008c4cdd0062
:100a50000743de00868474000c44dd000c02520063
:100a60006120e100200035006101600007002800de
:100a700087816400f7ff2700878364000703740001
:100a80000300e0000600320082037300040032001d
:100a90000000e800e08048000188a3000e003a0052
:100aa000f70f20000720e1004a003d000170a1007f
:100ab0004722dd00810072008a8070000000be00c5
:100ac0004f06be004f05be004f04be0000000600ea
:100ad0006000b800faff37008100d1000080d30029
:100ae0000402e800eeff3700040178008901740079
:100af000a10107008a807000f1ff3700f7010700ad
:100b0000070278000001fd008101fd00f3010700ec
:100b100087027800850372000778a3000400320082
:100b20000001fd008101fd0006020700e4ff37001f
:100b3000850362000768a300080032000b50e10043
:100b400003003200f0ff2f00f1ff2700dcff370029
:100b50000001fd008101fd00d9ff37000468a300fa
:100b6000d7ff3200faff3700f8ff270088836000c4
:100b70000b003a000000e00009003a008303640023
:100b800082837300020032000200be00ccff3700f7
:100b90000b50e100ceff3a000200be00c8ff370054
:100ba00014002000810064003eff3700f8ff27009a
:100bb0008883610004003a000200e00002003a006d
:100bc0008c007800beff3700150020008301640010
:100bd00039ff370001f82700000020008100750070
:100be000b7ff3700889fbe008a9fbe008c9fbe0063
:100bf0001b0020000202be000586680006002800d7
:100c0000060666004709de00f20fb20082003200dd
:100c10000243e80080003200c729de00f30fb20073
:100c20007d0032000343e8007b003200f107b20090
:100c30000170a000f507b2000570a000c708dd0034
:100c40004903de00868070004700dd00c72add0012
:100c50004923de00868272004722dd000305510031
:100c60000403500085835800030031000000400059
:100c7000818048000a05e9008c1f78008a9fbe0029
:100c800004005000858058000402420085824a001a
:100c900000004000818048000005eb000004be0019
:100ca0006033b8000406be000d48e1005600310074
:100cb000110009004dccd8000c01b8000d02b8009d
:100cc0008481410060824a008283530003045c00f7
:100cd00084845c0060055d000a00e00025003a00a5
:100ce000800578000d40e10049003100880078005f
:100cf00007007800110009004d88d8000c01b800e9
:100d00000d02b8008481410060824a006003110036
:100d100083835b0004045c00e0845c000900e00065
:100d200021003a004f01be000300e0002b0032001a
:100d3000e3016000070673008c817100010032003e
:100d4000640070004200de004e5edd000c007000aa
:100d5000c258de0001e0a00083010700cf01780047
:100d6000818071004f06be004f05be004f04be00db
:100d7000000006008c8343000d044c00e0844c000e
:100d800060054d000000e9000a00e000d4ff3200d9
:100d90008c8343000d044c00e0844c0060054d0042
:100da0000000e900ceff37000c0343008d834b00a9
:100db00060044c00e0844c000000e9000900e00001
:100dc000d8ff32000c0343008d834b0060044c00bd
:100dd000e0844c000000e900d2ff37004200de0052
:100de0004e5edd000c007000c258de0001e0a00085
:100df000cf0178000300e000daff3200600010004d
:100e0000e0801800d7ff3700f0ff2f00aaff37005f
:100e1000f0ff2f00b9ff37000404be002f010700c8
:100e2000870678000004fd008104fd002b01070007
:100e3000078366000678a300030032000960a7005c
:100e40000800be002c0037000d78a300020032001d
:100e50000800be00280037000778a30026003a00eb
:100e600001f0a10009f0a1000668a3000300320010
:100e7000f1ff2700f0ff2f00baff37000d68a30035
:100e8000030032000800be008c807000b5ff370000
:100e90000768a30007003a000648a30003003200d9
:100ea000f1ff2700f0ff2f00aeff37000d48a30031
:100eb000030032006000b8008c807000a9ff37008a
:100ec0000748a3000400320001f8270000002000ba
:100ed0008c807000a3ff3700760107000004fd003e
:100ee0008104fd0002057800720107000802be00bf
:100ef0008a01780059ff37000160a000120220002b
:100f0000c280880097ff37000100e0001200320025
:100f10000500e00010003200889fbe008a9fbe00de
:100f20008c9fbe000006eb0001f8a3000300320016
:100f300060001000e08018000cf0a00005f8a3008d
:100f40000300320060021200e0821a000cf0a200de
:100f50008005eb0041ff37006000b800020005008b
:100f6000038368000700280007036300470ade00c8
:100f70000480a100c71ade000580a100f70f200041
:100f80000720e100420032000728e1004000320063
:100f9000889fbe008a9fbe008c1f7800f107b200b8
:100fa000f307b2000400e000640032000170a0000a
:100fb0000500e000680032000370a00085054200d3
:100fc000eb07b1000204b8000302b80084844400b7
:100fd00060854a00020ab800848444000a854a00f9
:100fe000030ab80004054500040033000804d000db
:100ff0008984d2000a85d2008b05e9006158e1009e
:101000003d003500021020000901610003082000a6
:1010100089816100f70720008783640008867300d8
:10102000c84cde00c853dd00878474004855de00dc
:101030000300e00006003200820376000400320064
:101040008904e80060054d000a88a3000c003a00fe
:10105000f70f20000758e10044003d000a70a1008e
:10106000c75ddd000a8575008a00730009007800fd
:101070004f0678004f05be004f04be00000006007a
:101080000a05d1008984d3008b05e800f0ff370002
:10109000881f780006047800900007000702780097
:1010a0000001fd008101fd008c000700870278002f
:1010b000850372000778a300050032000001fd00df
:1010c0008101fd009f0007004f047800000006002a
:1010d000850372000748a30003003200f0ff2f00d1
:1010e000f1ff2700f8ff37000000200001f827007b
:1010f00088807000f4ff3700880178004848dd00e0
:10110000808171004848de00c850dd000100700099
:10111000c850de00060478000b01780016000700b6
:1011200088807000d2ff37000500e0000500320023
:10113000170020003a0007009dff37008103700070
:10114000f9ff3a00860078004f0678004f05be0090
:101150004f04be000000050083037100f9ff320058
:10116000270020002e00070094ff370001f8270019
:1011700086807000f4ff37000100e0002600320096
:10118000610111007810e10023003c006022b800ea
:101190007010e10004003500800278000100780042
:1011a0008000eb00700151000200e00009003400f3
:1011b00070031100062add00822ade008603dd00ae
:1011c000878272000200de00860bdd0007007000df
:1011d0008208de0084817100f4ff2700048262002f
:1011e0008481710004002800848262006102600032
:1011f00005f0a6000000060004827100070032001e
:101200000000e800e0804800000006000002be0088
:101210006000b800efff37006000b8000000060073
:10122000889fbe000004eb006138e10016003a0020
:101230000100e00008003a00c800de004800dd00c0
:10124000880020000100e00003003a00c800de0032
:101250004800dd00680444008184cf00e984540024
:10126000060034008908dd00f08314008703de00e7
:10127000878070000900dd00090444006102140049
:101280004f04be00000006000300e00008003a0022
:10129000c811de004811dd00880020000300e000d6
:1012a00003003a00c811de004811dd006804440064
:1012b0008384cf00e9845400060034008919dd00de
:1012c000f08314008713de00878171000911dd00af
:1012d00009044400e1021400e9ff37002700200060
:1012e00001f0a70017002000470bde00f60fb20048
:1012f000040032000643e8000a0032004702b3004f
:101300000000060001037800f607b2000603700033
:1013100002003a000703b300000006008702b30092
:101320000000060001037800f607b2000603700013
:10133000020032000770a000000006000760a00055
:10134000000006000478a300040032000578a30022
:10135000030032000168a30001003a000200be0051
:101360000160a0000000060081017000270032002b
:101370008002eb0001f8a3000300320060001000bf
:10138000e080180015002000f4072000020242004f
:1013900020003400f70320008703600006042000cb
:1013a0000003630002082000000161004700de0026
:1013b000c909dd0000807100c708de000600e000fa
:1013c0000800320087037100060032001000b000f0
:1013d0000180b0000188a30002003200c108de00d5
:1013e0000402e800f107b200f30f20000320e1003f
:1013f00003003d004722dd00810072002900370014
:1014000001f827000000eb00260037006000b8005c
:1014100000000600680212007f20e1000200340094
:101420006000b8001f0037006011b8007020e100b4
:101430000400350080017800010078008000eb0096
:10144000700252000400e00009003400f0031200b2
:101450000719dd008419de000703dd0086817100b5
:101460000400de00070bdd00060070008408de00cb
:10147000f7ff2700838363008703710006002800bd
:1014800003036300070032000700e00003003a0096
:101490006101600002817300020032001000b000a0
:1014a0000180b0000500a6000000060001f0a000c9
:1014b000000006004f0ade004709de00f107b20017
:1014c000f20fb2000b003200f207b1000170a00071
:1014d000c708dd00c901de00838070004700dd0021
:1014e0000400a6000000060060001000e080180064
:1014f00000000600810f700001003a0000000600a5
:101500008182cf000500e00010003e008082cf0005
:10151000ee8242007028e1000400390007003e001e
:10152000800078000000eb000e003700708312008e
:101530008600de000500dd000a00370070835200df
:101540008600dd000000eb0006003700e28252005a
:101550008508dd00708312000603de0086807000bf
:101560000500dd007507b0000501ea000400a600d3
:101570000000060060001000e08018000000060077
:10158000881f7800030478000300e00007003d0096
:1015900060001000e080180060011900e08119006f
:1015a00002003b0001f02d0003003700040007009b
:1015b00008f0a70001f0a0004f047800000006002a
:1015c000889fbe008a9fbe000082700004027100e6
:1015d00004827100260032000004be000200be003a
:1015e0006011b8006b092000950220000182cf0035
:1015f0000a0039000541b1000082cf000700390020
:101600000541b1000982cf00040039000541b10055
:101610000882cf00010039000541b10005425200a7
:10162000120032000a003b008281710061016400f7
:101630008100d1000080d3008984d3000884d300c6
:101640008b05e8000442e800f7ff3a000700370086
:101650000804440089844c00000048008180480050
:101660008b05e9000442e900f9ff3a000300070096
:101670004f05be004f04be000000060081002000a0
:10168000618055000b003d000b00200061fe2f0023
:101690000100e1001d0034008281710061016400dd
:1016a0008904d1000884d3000000e800faff3a0062
:1016b00071002000610064000300700002006000ff
:1016c0000900320061044400e0844c000988a50050
:1016d000050032008b05e8006808e10002003a00ce
:1016e0008904d1000884d300f20f20000258e100e1
:1016f00005003d00c75ddd00f907b2008980750077
:1017000008007800000006000bf827008b00780026
:10171000000005000400fa00889fbe008a9fbe00fa
:101720000004be004709de0003002000f20fb200f3
:10173000f207b100f60f510030003c000200e0005b
:101740001c003500faff2f00fb0720000201e90012
:10175000030033008b85d1000a85d300fbff3700df
:101760008b8164000a016000e00f5100e08f590096
:10177000220032000200200003b8270034fc0700da
:10178000a0bf9f00b1bf9f00e00f5400e08f5c003e
:1017900002003d000a0444008b844c000a85ea00e4
:1017a0008b85ea008b8064000a0064000004be00a0
:1017b000110037000200200003b8270024fc0700b6
:1017c000a0bf9f00b1bf9f00e00f5400e08f5c00fe
:1017d000020035006044b8000700370008004400ec
:1017e00089804c00e00f5000e08f5800020032006a
:1017f0000800200009f82b000800be004f05be00bd
:101800004f04be000080fa00000006004f02b00046
:10181000889fbe008a9fbe008c9fbe008e1f7800ee
:101820000005be000204be00b2af9f00c3af9f0020
:10183000b2b79f00c3b79f00cfae97000df0a100d5
:1018400002067800e00f5600e08f5e00c30332000e
:10185000faaf9f008bb79f000000200001f8230023
:10186000800f5500818f5d00bc0332008fb297005e
:1018700005f0a1007faa970094b79f00a5b79f002d
:101880000000200001f82700800f5200818f5a00cd
:1018900003003c00800f5600818f5e00040034007e
:1018a0000a01be000800be00e9fb0700b2033700d2
:1018b0006033b8007fa997008fb19700e00f510007
:1018c000e08f590029003d0026002000070020007d
:1018d000f0ff2f00f1b72400800f5600818f5e00cb
:1018e00022003c006033b800f0ff2f00f1f7230026
:1018f000800f5600818f5e003300340047e8de0021
:10190000cfe8de00f007b1000180b10077011000e0
:101910000c00be00820178008301e900030033005f
:101920008180d1000080d300fbff37000003be00a0
:10193000020778000e07e9000300330006034300a6
:1019400087834b00fbff37000601be006033b80001
:101950008c0f51008d8f59001b003a00610360000d
:1019600062031300e0831b00170037000000200013
:1019700001f82700800f5600818f5e0012003a00a8
:101980000000200001f82300800f5200818f5a00d0
:1019900072033200060034003fb09700cfb09700ca
:1019a000e00f5000e08f580074033d006e033700d5
:1019b0003fb19700cfb19700e00f5100e08f590081
:1019c00069033d00690037000000200001f8230092
:1019d000800f5600818f5e0009003a003fb29700e9
:1019e000cfb29700e00f5200e08f5a0060033d0035
:1019f0000a01be000000200001f823005500370056
:101a000000002000010024003fb19700cfb19700f3
:101a1000800f5100818f590003003a000a01be0077
:101a20000a00be004b0337000000200001f0230035
:101a30003fb19700cfb19700800f5100818f5900bf
:101a400008003a007fa897008fb09700e00f500081
:101a5000e08f5800030035000a00be00780307003d
:101a6000450337000a00be00f4b79f0085bf9f0002
:101a7000d6b79f00e7b79f00fb03070002002000d6
:101a800003f827007fb297008fba97005fb39700e3
:101a9000efb39700820f5200838f5a000800320084
:101aa000e00f5200e08f5a000500320002002000d3
:101ab00003f82300820f5200838f5a002d003a0052
:101ac0003fb19700cfb19700e00f5100e08f590070
:101ad0000c003d000001be000000200001f82300c2
:101ae000f4b79f0085bf9f00d6b79f00e7b79f0060
:101af0003cfc07007fb297008fba97005fb3970056
:101b0000efb397007fa997008fb19700e00f5100c6
:101b1000e08f590018033d000200200003082c004c
:101b2000040241008582490004027300858273002b
:101b3000e00f5200e08f5a0008003a001202200025
:101b4000828288000001be000200be0037fb070051
:101b50000001be0023fc070007033700e10f53001c
:101b6000e08f5b0004033a000004be0009f0a2000d
:101b7000020337007fa997008fb19700e00f510053
:101b8000e08f59000d003d00e00f5300e08f5b0037
:101b900004003a0010022000808288000a01be0082
:101ba000e9ff3700e10f5300e08f5b0008003200cf
:101bb0000600200007f8230007003700020020007d
:101bc00003f82300f2af9f0083b79f0004003700a3
:101bd0000600200007f82b00f6af9f0087b79f0094
:101be0000200200003d02400820f5600838f5e0085
:101bf0005600340072ff2f00f3f72300820f5200cb
:101c0000838f5a0006003c003fb09700cfb097008a
:101c1000e00f5000e08f580007023d00e50137005b
:101c20007200200003f82300820f5200838f5a00b5
:101c3000060034003fb19700cfb19700e00f51008c
:101c4000e08f5900db013c00fb013700020020005f
:101c500003f82300f5fa07000005be0002a02a00e1
:101c600083fb2300befc070090b79f00a1b79f0035
:101c700002572a00c36e23000a00be00b8fc07000a
:101c80000002be000a01be000a00be00f4b79f00b9
:101c900085bf9f00b2fc07000006be0002002000c6
:101ca00003e823000a00be00adfc07000001be00ef
:101cb000b0aa2a00a1ea2300dcfa07000001be0056
:101cc0000a00be00a6fc07000001be0000002000c4
:101cd00001f02300d5fa07000001be000c00be0091
:101ce0009ffc0700b2a32a0083fb23009cfc070093
:101cf0000001be007fb297008fba97000400be00bb
:101d0000cafa07000005be000001be001fb0970020
:101d1000afb09700cefa07000001be008300780044
:101d200004002f00020062000003be00b6b79f004f
:101d3000c7b79f001fb19700afb19700bbfa07006c
:101d40000001be000a00be00590137006011b80052
:101d5000f6ff2f00f7072000860f5200878f5a00ea
:101d600007003c000200200003b824007cfc0700b0
:101d700090b79f00a1b79f0082fe2f00f3ff2f00b6
:101d8000f207b1000380b1002fb2970047a0de0038
:101d900084027800cfa8de0002034000838348005d
:101da00096af9f00a7af9f0085007800f107b200b3
:101db0001fb097000200200003f823000202700009
:101dc0008382700094b79f00a5b79f006033b8006e
:101dd000d6af9f00e7af9f0012472c00c301200041
:101de000820f5000838f58001a0034001200200028
:101df00003002000d2af9f00e3af9f00623d2b00a5
:101e0000d3052000820f5000838f5800110034004a
:101e10001faa9700afaa970061024200e0824a0021
:101e200094af9f00a5af9f000000200001f82f0095
:101e30001fb39700afb397000603400087834800a5
:101e400096b79f00a7b79f006000b800d0af9f0073
:101e5000e1af9f00dfa89700c208dd0081af9f00bf
:101e600080032100010040001005780090059000db
:101e70000a01be001fb09700afb097006bfa0700d1
:101e80000006be000a01be001fb09700afb0970069
:101e90006ffa07000001be000000200001f82300d7
:101ea00050fb07000002be000001be000c00be0097
:101eb000f4b79f0085bf9f0029fc07000003be0008
:101ec0000e002f0081017800c3b79f00000167005a
:101ed000b2b79f005fa89700efa89700c500dd008c
:101ee00000002000d0af9f00e1af9f000000200065
:101ef000010420005fa99700efa9970002014000ac
:101f000083814800d2af9f00e3af9f001fb09700ce
:101f1000afb097008181d1000081d30083007800a9
:101f200001d0a1000200670001d0a0005fa99700c6
:101f3000efa997000201400083814800d2af9f00c3
:101f4000e3af9f005fa99700efa997003fb097000c
:101f5000cfb09700d6b79f00e7b79f0000fc0700ff
:101f60000001be000c00be0030fa07000006be00f3
:101f70000a01be005fa89700efa897002bfa0700a0
:101f80000001be001fb09700afb0970027fa07000e
:101f90000001be003fb09700cfb09700f0fb0700f4
:101fa0000001be000c00be0020fa07000001be00c8
:101fb0007fb297008fba97000400be00e8fb0700cd
:101fc0000006be005fb39700efb397000601be00a6
:101fd0000600be00e2fb07000005be000001be00d7
:101fe000dffb07000002be0022142f0033e52300b0
:101ff0000a00be00f4b79f0085bf9f00d8fb070012
:1020000052252300c3e6230011fa07000001be0099
:102010000a00be00d2fb070052302a00b3e82300ba
:102020000bfa07000001be000a00be00ccfb07004f
:10203000b2aa2a00a3ea230005fa07000001be00a5
:102040000a00be00c6fb070072db2600b3ed2300ca
:10205000fff907000001be000a00be00c0fb070038
:10206000a299290093f12300f9f907000001be00ad
:102070007fb297008fba97000400be00b8fb07003c
:102080000005be005fb39700efb397000601be00e6
:102090003fb09700cfb09700edf907000001be00f8
:1020a0000c00be00aefb07000001be000a00be002f
:1020b000e7f9070090b79f00a1b79f003fb19700d5
:1020c000cfb197000200be00a5fb07000005be00cf
:1020d0000200200003042400ddf907001fb197006f
:1020e000afb19700daf907008102780000026700bb
:1020f0000401be003fb09700cfb09700f4b79f0037
:1021000085bf9f0096fb0700b0b79f00c1b79f0037
:102110007fb297008fba97000401be000c00be008a
:102120008ffb07000006be0002002000030424000d
:102130007fb297008fba97000400be00bbf907007a
:102140000a01be00b9f907000001be001fb09700e8
:10215000afb09700b5f907005fb39700efb39700f2
:102160000601be007efb07000001be000c00be00a1
:10217000b7f907000005be000001be003fb09700a0
:10218000cfb09700b2f90700810278000002670023
:102190000200240063f723000400be00f4b79f0090
:1021a00085bf9f006efb070090b79f00a1b79f00ff
:1021b000623c2200638f2b007fb297008fba97009a
:1021c0000400be0066fb07000006be003fb197009a
:1021d000cfb197007fb297008fba97000400be007e
:1021e00092f907000001be000a00be008ff9070047
:1021f000f284230063f7230059fb07000001be00af
:102200000c00be0092f90700020421008fab97007a
:102210000701410092019000120178008cf907003b
:10222000d0af9f00e1af9f001fa89700afa8970015
:1022300054f907000006be00800421008fa9970012
:102240000300400010057800900590005fa99700fa
:10225000efa997001fb09700afb097007cf9070077
:102260000a01be007af907000c01be0078f90700e8
:102270000001be0083007800020067000002be007b
:10228000b4b79f00c5b79f000c01be0067f90700f7
:102290000a01be0065f907001fb19700afb19700b2
:1022a00062f907000001be005fa89700efa8970041
:1022b0005ef907000005be00cfaa970000002f00be
:1022c000bfab9700070260000401be000800be001b
:1022d000f4b79f0085bf9f0054f907003fb19700f6
:1022e000cfb197001efb07000006be000a01be002a
:1022f0000800be001afb07000001be000c00be0073
:1023000053f907000004be003fb19700cfb197001a
:102310007fb297008fba97000400be0010fb070041
:102320000005be00b0b79f00c1b79f000a01be0004
:102330000800be0046f907000006be000003be000c
:102340000000200001302400800f5600818f5e00c5
:1023500018003c00800f5600818f5e001d003a007f
:10236000c2a32a00833323000800be00dcb79f000d
:10237000e7b79f0036f907000002be000a01be0061
:102380000c00be00f4b79f0085bf9f0027f907002f
:102390000001be007fb297008fba97000400be0014
:1023a000b80107005fb39700efb397000000e000ab
:1023b00029003400a22c2f00931427007fa8970037
:1023c0008fb09700e6fa0700a22c2f009314270085
:1023d000e00037008701780003f0a1000c017800cd
:1023e0000000200061312400800f5100818f5900ce
:1023f00011003c000000200061312c00800f5600cd
:10240000818f5e0014003a000a01be000c00be007d
:10241000dcb79f00e7b79f0004f907000001be008a
:102420000800be00950107005fb39700efb3970067
:102430000000e00008003c000226240023da20000f
:102440007fa897008fb09700c5fa070002262400e6
:1024500023da2000bf0037008701780003f0a100d5
:10246000060178006022b8000000200001f023007f
:10247000800f5100818f59003a0034004798de00e8
:1024800022f82f0000014100000020000108200078
:102490000201e900030033008180d1000080d300f5
:1024a000fbff37000000430081804b0001067800ed
:1024b0008c01780003f0a100479ade00cf9ade007d
:1024c0000401be00f207b1000380b100b2b79f0063
:1024d000c3b79f00f4ff2f00f5072000bfb197009e
:1024e0008301e900030033008582d1000482d30018
:1024f000fbff37000482ea008582ea00850166005e
:1025000000016200fd0720008d02660000027800d5
:102510000570a0003fb79700770017000000e900a2
:10252000030033008582d1000482d300fbff370013
:10253000e00f5300e08f5b0002003d0060021200dc
:10254000e0821a000a00be00f4b79f0085bf9f001a
:10255000b6f80700b0b79f00c1b79f008fba9700c9
:102560007fb297003fb19700cfb197000800be003f
:10257000f4b79f0085bf9f00b5f80700810678007b
:1025800002002800000661000220270013f3230048
:102590000c00be0072fa07000005be003fb19700b4
:1025a000cfb197000c00be00a0f807000001be00ec
:1025b0000800be009df807008221270013f32300c6
:1025c00067fa07000004be00c2e82b00f35b23009b
:1025d0000c00be0062fa07000001be000800be0049
:1025e0009bf807000006be000001be000a00be0006
:1025f00097f807000004be000a01be008bf8070030
:102600000001be000c00be0088f80700b0b79f00b4
:10261000c1b79f000801be000800be0050fa0700c5
:102620000005be00c2b42b00133323004cfa070090
:10263000e2a02e00d35d23007cf807000001be005d
:102640000a00be0046fa070052352b00a38823007b
:102650007ff807000001be000a00be0040fa070034
:1026600012b6200063b3230070f807000001be001b
:102670000a00be003afa0700b2aa2a00a3e2230029
:1026800073f807000001be000a00be0034fa07001c
:102690000001be000800be0064f807000005be008f
:1026a0000001be000800be002dfa07000006be00b3
:1026b00002002000030024000a00be005bf80700af
:1026c0000001be000c00be0046f907000005be0078
:1026d0003fb19700cfb197000800be0020fa070075
:1026e0000001be003fb09700cfb0970058f8070038
:1026f0000001be000a00be004cf807000801be0041
:102700004af807000001be000000200001f8230085
:1027100046f807007fb297008fba9700c721dd0007
:10272000020020000201400083814800479bde0038
:10273000cf9bde00e00f5300e08f5b0003003c0006
:1027400004017800140007000001be007fa8970074
:102750008fb0970002fa070007003700080020003a
:1027600009f82300050037006044b8000300370073
:102770000a04be00010037000004be000800be00cd
:102780004f0778004f06be004f05be004f04be0045
:102790004f02b10000000600889fbe0002047800ce
:1027a000f9072000890f54000d00340002002000ba
:1027b00003f02700eaf90700f807b100890f540079
:1027c000170034000200200003f02700e4f907009e
:1027d000f807b100890f540010003c0010003700ca
:1027e00029f82f00890f54000d003d000200200041
:1027f00003c82000daf907006806b000890f54000a
:1028000007003d000200200003c82000d4f90700a3
:102810006806b000890f540001003d0009047800eb
:10282000f207200008014100cf91de00c711dd0052
:1028300002002000caf907004f04be000000060095
:10284000889fbe008a9fbe008c9fbe000004be0011
:102850000400200005f82700858360000403780049
:10286000840f5300858f5b0007003a000801be000b
:102870000800be00baf907000001be000800be0053
:10288000f3f7070010003700e00f5000e08f58000a
:102890000f003c008101780003f0a10000017800e6
:1028a000e00f5100e08f59006a0032001002200052
:1028b000808288000801be000800be00dbf7070028
:1028c0000001be00c7f807000004be006100370029
:1028d000478cde00cf8cde00e00f5400e08f5c0000
:1028e0000f003a006044b8000400370000004000c8
:1028f0008180480061044400e0844c000400200012
:10290000050820008181620004017800e00f510079
:10291000e08f5900f5ff320061041400e0841c00d0
:10292000f807b1000980b10081017800f307b20017
:10293000000178000200be000170a0000808a3009a
:102940000200320000004000818048008984d100ec
:102950000884d300000040008180480094012000da
:1029600002002000031020006055b8006066b80027
:102970000c0341008d834900800f5300818f5b0061
:1029800006003c000606410087864900060050000c
:10299000878058000a0541008b85490000004000ef
:1029a000818048008301d1000281d3000402e90044
:1029b000efff3a00e00f5000e08f58001b0032009c
:1029c0000226240023da20000000200001f8230062
:1029d00096f707000200200003f8230029000700f3
:1029e0000000e000110035000226240023da200058
:1029f0000000200001f8230095f7070002002000e6
:102a000003f823001f0007000000e000030034006b
:102a100062054500e0854d00040037006000b80005
:102a2000610065000005450081854d00c744dd005b
:102a3000080020000000200001f0230008044000ee
:102a4000898448008b85d1000a85d300080445009d
:102a500089844d000800be004f06be004f05be0031
:102a60004f04be00000006000001be008300780095
:102a700001f0a10002007800000006001400200010
:102a800002003700f4ff2f0000003700889fbe00cf
:102a90008a9fbe00841f7800170007004f0078004f
:102aa00011003300f0ff2f00838f6c0006003b0005
:102ab000040565000a00a7000800370009f0a60019
:102ac0001000200008003700820f5400838f5c0044
:102ad000030039001000200001003e00000020002b
:102ae00009f0a7000000ea004f05be004f04be0039
:102af0000000e000000006000004be0026f707000a
:102b00000003be000405be000200be0022f707005d
:082b1000844f7500000006006f
:020000040000fa
:102b18000000fa002000200080808800a10020002a
:102b2800100020007a01070011002000200020007a
:102b38007701070011002000100020001002070094
:102b480030020700c7000700990207006e2eef0049
:102b5800707380007072880070728000f071880055
:102b6800f07180007071880070718000f0708800ca
:102b7800f070800070708800260207002c020700a1
:102b8800000ea900040ea900110ea900150ea90037
:102b9800104ea900144ea9000080fa00000006009b
:102ba8000e00fa006000b800008fbe006000b80098
:102bb80020079800310798006000b8004007980087
:102bc800510798000040eb00404f9800290037005b
:102bd8004e4890000080fb00e600b90080007800b5
:102be800a00121000080400010007800cf80de00a6
:102bf8001e0f40005e9748004e4890000080fb0082
:102c0800e600b9008080e800a001210000804000b3
:102c180010007800cf80de002e019000be019000e9
:102c28000200400083804800200798003107980080
:102c38004e4890000080fb00e600b900e400400028
:102c4800a00121000080400010007800cf80de0045
:102c58004e019000de019000020040008380480091
:102c680040079800510798004e4890000040e8003f
:102c7800404f98004e489000e44f5000d4ff360073
:102c88001e0078009e0090005200200003002000e3
:102c980090f6070000007800108088002e00900051
:102ca800be009000520020000300200089f60700b3
:102cb80000007800208088004e009000de00900020
:102cc800520020000300200082f607000000780070
:102cd800308088000080fa00000006000000fa003a
:102ce80000198000610060000000e0000800320068
:102cf8002003a900d801070040808800518088007f
:102d08001602070060808800718088000100370083
:102d1800000000000080fa00000006000000fa0031
:102d2800a101210000d0bf000080fb00e600b9002f
:102d38006400400000814000a101210000d0bf00d4
:102d48000080fb00e600b9000080e80080804000b9
:102d5800a301210000d0bf000080fb00e600b900fd
:102d680000804100a200070000d0bf000040e8003a
:102d780000f0b70000d0bf000081fb00d0cc2c00d1
:102d88000010b8004208de00e500b900000051005c
:102d98000040780000f0b70081ff07000080fa00cb
:102da800000006000000fa0020708000610060004a
:102db80000f0a7000000ea000000e9004f00de0074
:102dc800004078000080fb006100600021708000f6
:102dd8000100a10001007000207088008080800040
:102de800e20f50001d003a00a070800064006000ef
:102df80000f0a7000000ea000000e9004f00de0034
:102e0800004078000080fb00610060004200dd00a7
:102e1800a17080000120a10001007000a07088004e
:102e2800a1708000001020000080600000f0a70062
:102e38000000ea000000e9004f00de0000407800d2
:102e48000080fb00610060004800dd00a170800088
:102e58000180a10001007000a07088000080fa00c5
:102e6800000006000000fa00002ea800518ea900fc
:102e780051aea9004136800000f82f0000806000a4
:102e88001001b30040368800c134800000fc2f00d8
:102e9800008060005000b300c0348800b134800066
:102ea800f00f2c008080600000602000010070009e
:102eb800b0348800108ea900106ea90030cea90089
:102ec800146ea800148ea80034cea80041e2a90010
:102ed80042a2a8004342a90042c2a8004302a90096
:102ee8001112800030fe2f00008060004001b30006
:102ef8001012880011128000c0ff2f0000806000af
:102f08000010a0001012880041e2a800146ea90069
:102f18003100200020002000ed000700b004200050
:102f2800140007001000200012000700146ea8000b
:102f38003100200020002000e5000700146ea900e1
:102f48003100200020002000e1000700c00420001c
:102f5800080007000000eb0006000700146ea80038
:102f68003100200020002000d90007000080fa006e
:102f7800000006000200fa00000f780000000000c0
:102f880000128000620060000000e000fcff3a00d0
:102f98009e007800411288000000000000128000a6
:102fa800610060000000e000fcff32004012800079
:102fb8000080fa00000006000400fa00204798008c
:102fc800146ea9002e4090000074a0000080fb0041
:102fd800e8ff07000000eb00e6ff0700004f78005d
:102fe800146ea8001e4078000080fa000000060059
:102ff8000c00fa0030079800410798005207980023
:1030080020c0b300ecff0700004f780030c0b300c9
:10301800e9ff07001047980080cfb3001e4f6000fb
:103028001e4090000080fb00c800dd001e80fb00f1
:10303800010070004380de00cf00de000080400009
:103048000080d100800078003e00900001087800e0
:1030580040c0b300d8ff07002047980050c0b30015
:10306800d5ff070030479800ae40900080cfb300ee
:1030780000c06000204798003e4090000080fb00a0
:10308800c800dd002e4090000080fb0001007000a9
:103098004380de00cf00de00008040000080d100c9
:1030a800800078004e0090000108780060c0b300ee
:1030b800c1ff07004047980070c0b300beff07007b
:1030c80050479800ce40900080cfb30000c0600009
:1030d800404798005e4090000080fb00c800dd007b
:1030e8004e4090000080fb00010070004380de002d
:1030f800cf00de00008040000080d1008000780012
:103108005e009000010878000080fa0000000600c8
:103118000600fa0010079800210798002e0090007a
:103128000000e00039003400ae009000800c200060
:10313800808f500037003c002e009000cf80de00ca
:1031480022aa24008289b900e402b9008401780027
:103158000301410023aa24000300b8000101410033
:103168008200780085f5070002002000a3472400ac
:103178009af6070066f50700000f78001e00900019
:10318800e10f50000f003a002e0090000040780038
:1031980014f0b70005e1a9000021ef002108800024
:1031a8000003200001007000200888009e007800bd
:1031b800110888000068a9002068a80005e1a80097
:1031c800170037001e009000e20f500013003a006d
:1031d8002e0090000040780015f0b70011e1a9001a
:1031e8000621ef0081088000000320000100700024
:1031f800800888001e0278006408880000e8a9009a
:1032080020e8a80011e1a800050037000000000030
:103218000300370000000000010037000000000034
:103228000080fa00000006000200fa00000f780093
:103238001e007800e10f50000e003a0000408000a8
:10324800680060000000e000040032001000200068
:103258001d0037000140fe0001003700000000009b
:1032680012d0bf000004e000faff32001270ef0035
:10327800140037001e007800e20f50000f003a00db
:103288000140800000082000008060000000e0008d
:1032980004003200100020000b0037000140fe003f
:1032a800010037000000000013d0bf000004e00058
:1032b800faff32001370ef00020037001000200000
:1032c800010037000000eb000080fa000000060053
:1032d8000800fa0020079800310798000000eb006a
:1032e800000f78002e009000e10f50000c003a000b
:1032f80014d0bf000080fb00be00900000017800e1
:10330800110009008200d800cf80de001bf50700fd
:10331800fef80700fef40700000f78000b003700e6
:1033280015d0bf000080fb00be00900000017800af
:10333800110009008200d800cf80de000ff50700d9
:10334800f2f80700f2f40700000f78000000eb0025
:1033580010079800050037002e009000b2ff070004
:103368001e0090000000e800100798001e00900062
:103378009e0f5000f8ff39000080fa000000060098
:103388000400fa00000f78001107980080c0b3000d
:1033980024e3b7002043a9001e0078000000e000e5
:1033a800010032002043a80001198000f0f12f002d
:1033b80000806000001988001e0090000000e000f6
:1033c8000900320001198000000e20000100700081
:1033d8000019880021198000f00f2e00008060007d
:1033e80000b0a0002019880011198000f0cf2f002c
:1033f800008060001019880021e3a8000080fa000e
:10340800000006000000fa002343a8000080fa002c
:10341800000006000000fa001f6ea8001feea800ba
:10342800006ea900046ea8000080fa0000000600e3
:103438000000fa001119800030f82f0000806000a9
:103448000020a000101988003163a80031e3a8000b
:103458000080fa00000006000400fa00889fbe0001
:10346800101880008000eb00c7f40700008fbe0032
:1034780032332300330524001e0078009e0090009c
:10348800b5f6070002002c00f3472400d3f5070027
:10349800008fbe0042e12a00730924001e00780054
:1034a8009e009000acf607000001be00f0282c003a
:1034b80051012400dbf407000004be001e00780060
:1034c8009e0090000001be00a3f6070052b82e002f
:1034d80013082400a0f607000001be000800be0083
:1034e800d9f407000004be000200200003042400f1
:1034f8001e0078009e009000c2f80700d2cc2c0075
:10350800c3fc230094f607000001be000800be00bb
:10351800c4f407000004be000200200003082400d1
:103528001e0078009e009000b6f80700f2282c00d4
:1035380053e7230088f607000001be000800be001c
:10354800c1f40700008fbe001e0078009e009000a6
:103558004f04be000080fa00000006000400fa00d4
:10356800001880008000eb0087f40700008fbe0081
:1035780032332300330524001e0078009e0090009b
:1035880075f6070002002c00f347240093f50700a6
:1035980002002000030424006ff60700008fbe001d
:1035a8001e0078009e0090000080fa0000000600cf
:1035b8000000fa00316ea8002136800000f82f00c4
:1035c80080806000b0042000010070002036880070
:1035d800300ea9000134800000fc2f00008060003c
:1035e8000000a00000348800401d20004011880021
:1035f8002062a9000111800090ff2f000080600068
:10360800001188002002a90021e2a8002342a80096
:103618000168a9002168a80021428000f0ff280065
:103628000080600000c0a000204288000080fa00ee
:10363800000006000600fa00200798000000eb00d2
:10364800000f78000f0037001e007800ae009000d1
:10365800008040009040780021479800000000005a
:103668001111800000202000008060000000e000b0
:10367800fbff3a002e4090000000fb00201188005c
:103688001e0fe8001e007800ae0090000080400089
:10369800104078000004e000ebff3a000080fa00d8
:0436a8000000060018
:020000040000fa
:1036ac001a1000001e000000800000000010000036
:1036bc001200000080000000121000000600000044
:1036cc0080000000181000000200000080000000c4
:1036dc00381000001800000082000000000080007c
:1036ec003f000000c03f000000000000dccfd10014
:1036fc003500000000000000c0153f005010000015
:0c370c000200000080000000000000002f
:020000040000fa
:103718000000fa00fefc0700a2fd0700813e200021
:0c37280020002000eafe0700fbff370035
:00000001FF
